:1000000012C01FC01EC01DC01CC01BC01AC019C01A
:1000100018C017C016C015C014C013C012C011C03C
:1000200010C00FC00EC011241FBECFEDCDBF10E019
:10003000A0E6B0E001C01D92AC36B107E1F7B9D03F
:100040004BC1DECF8AB188698AB983B1866083B932
:1000500012B887E189B9089588BB88EE93E02CE255
:1000600031E0F9013197F1F70197D9F70895382F69
:1000700020916800922FE22FFF27E7FDF095E15ACB
:10008000FF4F04C080818183915031971916D4F3BA
:1000900030936000822F8F5F809368000895282F2F
:1000A000A09168009A2F9150E92FFF27E7FDF09566
:1000B000E05AFF4F08C080813197821719F490935E
:1000C000690003C0915097FFF6CF8091690099278E
:1000D00087FD9095FC01E05AFF4F40E050E02A2F49
:1000E00030E021503040BC0104C0818181934F5FDA
:1000F0005F4FCA01860F971F82179307B4F38A2FA9
:1001000081508093680008958091600008958091E7
:100110006800882311F0969A089596980895209182
:1001200060002452220F20936B0082B3837C82BB39
:1001300042B330E0C9018F709070880F991F880F0B
:10014000991F482B42BB88B38F7188BB88B3207F2F
:100150003070220F331F822B88BB0895982F833075
:1001600038F48FEF93E099BD88BD10926A0008952E
:100170008D3240F481E080936A00692F70E0615015
:1001800070400FC0682F70E0893530F482E08093B2
:100190006A006551704005C083E080936A00665331
:1001A000704080E094E071D06150704079BD68BDCE
:1001B0000895FF920F931F9345DF18BA8FEF87BB07
:1001C0009698919A81B38C6781BB83E880BF83E066
:1001D00083BF83EA8FBD82E08EBD8FEF91E09BBD30
:1001E0008ABD83E2BBDF10E000E0FF245F9BFECF0F
:1001F0008CB187FF04C090B3082F10E040C01130CD
:1002000011F4F82E3CC01230D1F5003951F001390B
:1002100018F40038A1F513C0003B31F1003E79F528
:100220001AC0882361F08F2D22DF80916800823010
:1002300078F088B38C7F90916A00892B08C08F2D4D
:100240002EDF80916800882319F488B38C7F88BBE7
:1002500066DF5DDF14C090E063E0880F991F6A9548
:10026000E1F79BBD8ABD0BC091E0F91621F095E046
:10027000F91629F403C0880F86BF01C06FDF1F5F26
:10028000133009F0B3CF11E0B1CF97FB092E072649
:100290000AD077FD04D00CD006D000201AF4709557
:1002A00061957F4F0895F6F7909581959F4F08953A
:1002B000AA1BBB1B51E107C0AA1FBB1FA617B7078C
:1002C00010F0A61BB70B881F991F5A95A9F78095A8
:0C02D0009095BC01CD010895F894FFCF7B
:00000001FF
